{
  "contractName": "PayTip",
  "abi": [
    {
      "constant": true,
      "inputs": [],
      "name": "client",
      "outputs": [
        {
          "name": "",
          "type": "address"
        }
      ],
      "payable": false,
      "stateMutability": "view",
      "type": "function"
    },
    {
      "constant": true,
      "inputs": [],
      "name": "tip",
      "outputs": [
        {
          "name": "",
          "type": "uint256"
        }
      ],
      "payable": false,
      "stateMutability": "view",
      "type": "function"
    },
    {
      "constant": true,
      "inputs": [],
      "name": "stylist",
      "outputs": [
        {
          "name": "",
          "type": "address"
        }
      ],
      "payable": false,
      "stateMutability": "view",
      "type": "function"
    },
    {
      "inputs": [],
      "payable": false,
      "stateMutability": "nonpayable",
      "type": "constructor"
    },
    {
      "constant": false,
      "inputs": [
        {
          "name": "amount",
          "type": "uint256"
        }
      ],
      "name": "setTip",
      "outputs": [],
      "payable": false,
      "stateMutability": "nonpayable",
      "type": "function"
    },
    {
      "constant": false,
      "inputs": [],
      "name": "finishPayment",
      "outputs": [],
      "payable": false,
      "stateMutability": "nonpayable",
      "type": "function"
    }
  ],
  "bytecode": "0x608060405234801561001057600080fd5b5033600160006101000a81548173ffffffffffffffffffffffffffffffffffffffff021916908373ffffffffffffffffffffffffffffffffffffffff1602179055506102db806100616000396000f30060806040526004361061006d576000357c0100000000000000000000000000000000000000000000000000000000900463ffffffff168063109e94cf146100725780632755cd2d146100c95780632e0de515146100f45780638f2c0c8114610121578063e9931fbc14610178575b600080fd5b34801561007e57600080fd5b5061008761018f565b604051808273ffffffffffffffffffffffffffffffffffffffff1673ffffffffffffffffffffffffffffffffffffffff16815260200191505060405180910390f35b3480156100d557600080fd5b506100de6101b4565b6040518082815260200191505060405180910390f35b34801561010057600080fd5b5061011f600480360381019080803590602001909291905050506101ba565b005b34801561012d57600080fd5b50610136610207565b604051808273ffffffffffffffffffffffffffffffffffffffff1673ffffffffffffffffffffffffffffffffffffffff16815260200191505060405180910390f35b34801561018457600080fd5b5061018d61022d565b005b6000809054906101000a900473ffffffffffffffffffffffffffffffffffffffff1681565b60025481565b60018102600281905550336000806101000a81548173ffffffffffffffffffffffffffffffffffffffff021916908373ffffffffffffffffffffffffffffffffffffffff16021790555050565b600160009054906101000a900473ffffffffffffffffffffffffffffffffffffffff1681565b600160009054906101000a900473ffffffffffffffffffffffffffffffffffffffff1673ffffffffffffffffffffffffffffffffffffffff166108fc3073ffffffffffffffffffffffffffffffffffffffff16319081150290604051600060405180830381858888f193505050501580156102ac573d6000803e3d6000fd5b505600a165627a7a72305820dc0070ecaac97145021cc9ecbe2b04e5d2cd86b04ec60646e80f3328c8058ed40029",
  "source": "pragma solidity ^0.4.24;\n\ncontract PayTip {\n    address public client;\n    address public stylist;\n    uint public tip;\n    \n    constructor() public {\n        stylist = msg.sender;\n    }\n    \n    function setTip (uint amount) public {\n        tip = amount * 1; //1 ether\n        client = msg.sender;\n    }\n    \n    function finishPayment() public {\n        stylist.transfer(address(this).balance);\n    }\n    \n}",
  "sourcePath": "/home/angelajean/Documents/GH/Dress-Me/truffle/contracts/PayTip.sol",
  "compiler": {
    "name": "solc",
    "version": "0.4.24+commit.e67f0147.Emscripten.clang"
  },
  "schemaVersion": "2.0.1",
  "updatedAt": "2018-11-09T20:58:04.467Z"
}